{
  "_format": "hh-sol-artifact-1",
  "contractName": "Escrow",
  "sourceName": "contracts/Escrow.sol",
  "abi": [
    {
      "inputs": [
        {
          "internalType": "address",
          "name": "_broker",
          "type": "address"
        },
        {
          "internalType": "address",
          "name": "_beneficiary",
          "type": "address"
        }
      ],
      "stateMutability": "payable",
      "type": "constructor"
    },
    {
      "anonymous": false,
      "inputs": [
        {
          "indexed": false,
          "internalType": "uint256",
          "name": "",
          "type": "uint256"
        }
      ],
      "name": "Approved",
      "type": "event"
    },
    {
      "inputs": [],
      "name": "approve",
      "outputs": [],
      "stateMutability": "nonpayable",
      "type": "function"
    },
    {
      "inputs": [],
      "name": "beneficiary",
      "outputs": [
        {
          "internalType": "address",
          "name": "",
          "type": "address"
        }
      ],
      "stateMutability": "view",
      "type": "function"
    },
    {
      "inputs": [],
      "name": "broker",
      "outputs": [
        {
          "internalType": "address",
          "name": "",
          "type": "address"
        }
      ],
      "stateMutability": "view",
      "type": "function"
    },
    {
      "inputs": [],
      "name": "deleteContract",
      "outputs": [],
      "stateMutability": "nonpayable",
      "type": "function"
    },
    {
      "inputs": [],
      "name": "depositor",
      "outputs": [
        {
          "internalType": "address",
          "name": "",
          "type": "address"
        }
      ],
      "stateMutability": "view",
      "type": "function"
    },
    {
      "inputs": [],
      "name": "isApproved",
      "outputs": [
        {
          "internalType": "bool",
          "name": "",
          "type": "bool"
        }
      ],
      "stateMutability": "view",
      "type": "function"
    },
    {
      "inputs": [
        {
          "internalType": "uint256",
          "name": "_timelock",
          "type": "uint256"
        }
      ],
      "name": "setTimelock",
      "outputs": [],
      "stateMutability": "nonpayable",
      "type": "function"
    },
    {
      "inputs": [],
      "name": "timelock",
      "outputs": [
        {
          "internalType": "uint256",
          "name": "",
          "type": "uint256"
        }
      ],
      "stateMutability": "view",
      "type": "function"
    },
    {
      "inputs": [],
      "name": "value",
      "outputs": [
        {
          "internalType": "uint256",
          "name": "",
          "type": "uint256"
        }
      ],
      "stateMutability": "view",
      "type": "function"
    },
    {
      "inputs": [],
      "name": "withdraw",
      "outputs": [],
      "stateMutability": "nonpayable",
      "type": "function"
    }
  ],
  "bytecode": "0x6080604052604051610dbb380380610dbb83398181016040528101906100259190610158565b816000806101000a81548173ffffffffffffffffffffffffffffffffffffffff021916908373ffffffffffffffffffffffffffffffffffffffff16021790555080600160006101000a81548173ffffffffffffffffffffffffffffffffffffffff021916908373ffffffffffffffffffffffffffffffffffffffff16021790555033600260006101000a81548173ffffffffffffffffffffffffffffffffffffffff021916908373ffffffffffffffffffffffffffffffffffffffff160217905550346003819055505050610198565b600080fd5b600073ffffffffffffffffffffffffffffffffffffffff82169050919050565b6000610125826100fa565b9050919050565b6101358161011a565b811461014057600080fd5b50565b6000815190506101528161012c565b92915050565b6000806040838503121561016f5761016e6100f5565b5b600061017d85828601610143565b925050602061018e85828601610143565b9150509250929050565b610c14806101a76000396000f3fe608060405234801561001057600080fd5b506004361061009e5760003560e01c80633fa4f245116100665780633fa4f2451461010f5780635a58cd4c1461012d578063abff011014610137578063c7c4ff4614610155578063d33219b4146101735761009e565b806312424e3f146100a35780631e891c0a146100ad57806328f371aa146100c957806338af3eed146100e75780633ccfd60b14610105575b600080fd5b6100ab610191565b005b6100c760048036038101906100c29190610758565b61034a565b005b6100d16103e2565b6040516100de91906107a0565b60405180910390f35b6100ef6103f5565b6040516100fc91906107fc565b60405180910390f35b61010d61041b565b005b6101176105c7565b6040516101249190610826565b60405180910390f35b6101356105cd565b005b61013f6106cd565b60405161014c91906107fc565b60405180910390f35b61015d6106f1565b60405161016a91906107fc565b60405180910390f35b61017b610717565b6040516101889190610826565b60405180910390f35b60008054906101000a900473ffffffffffffffffffffffffffffffffffffffff1673ffffffffffffffffffffffffffffffffffffffff163373ffffffffffffffffffffffffffffffffffffffff161461021f576040517f08c379a0000000000000000000000000000000000000000000000000000000008152600401610216906108c4565b60405180910390fd5b600060035490506000600160009054906101000a900473ffffffffffffffffffffffffffffffffffffffff1673ffffffffffffffffffffffffffffffffffffffff168260405161026e90610915565b60006040518083038185875af1925050503d80600081146102ab576040519150601f19603f3d011682016040523d82523d6000602084013e6102b0565b606091505b50509050806102f4576040517f08c379a00000000000000000000000000000000000000000000000000000000081526004016102eb90610976565b60405180910390fd5b7f3ad93af63cb7967b23e4fb500b7d7d28b07516325dcf341f88bebf959d82c1cb826040516103239190610826565b60405180910390a16001600460006101000a81548160ff0219169083151502179055505050565b60008054906101000a900473ffffffffffffffffffffffffffffffffffffffff1673ffffffffffffffffffffffffffffffffffffffff163373ffffffffffffffffffffffffffffffffffffffff16146103d8576040517f08c379a00000000000000000000000000000000000000000000000000000000081526004016103cf90610a08565b60405180910390fd5b8060058190555050565b600460009054906101000a900460ff1681565b600160009054906101000a900473ffffffffffffffffffffffffffffffffffffffff1681565b600160009054906101000a900473ffffffffffffffffffffffffffffffffffffffff1673ffffffffffffffffffffffffffffffffffffffff163373ffffffffffffffffffffffffffffffffffffffff16146104ab576040517f08c379a00000000000000000000000000000000000000000000000000000000081526004016104a290610a9a565b60405180910390fd5b6005544210156104f0576040517f08c379a00000000000000000000000000000000000000000000000000000000081526004016104e790610b2c565b60405180910390fd5b60004790506000600160009054906101000a900473ffffffffffffffffffffffffffffffffffffffff1673ffffffffffffffffffffffffffffffffffffffff168260405161053d90610915565b60006040518083038185875af1925050503d806000811461057a576040519150601f19603f3d011682016040523d82523d6000602084013e61057f565b606091505b50509050806105c3576040517f08c379a00000000000000000000000000000000000000000000000000000000081526004016105ba90610976565b60405180910390fd5b5050565b60035481565b60008054906101000a900473ffffffffffffffffffffffffffffffffffffffff1673ffffffffffffffffffffffffffffffffffffffff163373ffffffffffffffffffffffffffffffffffffffff1614806106745750600160009054906101000a900473ffffffffffffffffffffffffffffffffffffffff1673ffffffffffffffffffffffffffffffffffffffff163373ffffffffffffffffffffffffffffffffffffffff16145b6106b3576040517f08c379a00000000000000000000000000000000000000000000000000000000081526004016106aa90610bbe565b60405180910390fd5b600073ffffffffffffffffffffffffffffffffffffffff16ff5b60008054906101000a900473ffffffffffffffffffffffffffffffffffffffff1681565b600260009054906101000a900473ffffffffffffffffffffffffffffffffffffffff1681565b60055481565b600080fd5b6000819050919050565b61073581610722565b811461074057600080fd5b50565b6000813590506107528161072c565b92915050565b60006020828403121561076e5761076d61071d565b5b600061077c84828501610743565b91505092915050565b60008115159050919050565b61079a81610785565b82525050565b60006020820190506107b56000830184610791565b92915050565b600073ffffffffffffffffffffffffffffffffffffffff82169050919050565b60006107e6826107bb565b9050919050565b6107f6816107db565b82525050565b600060208201905061081160008301846107ed565b92915050565b61082081610722565b82525050565b600060208201905061083b6000830184610817565b92915050565b600082825260208201905092915050565b7f4f6e6c79207468652062726f6b65722069732061626c6520746f20617070726f60008201527f766520746865207472616e73616374696f6e2e00000000000000000000000000602082015250565b60006108ae603383610841565b91506108b982610852565b604082019050919050565b600060208201905081810360008301526108dd816108a1565b9050919050565b600081905092915050565b50565b60006108ff6000836108e4565b915061090a826108ef565b600082019050919050565b6000610920826108f2565b9150819050919050565b7f4661696c656420746f2073656e64204574686572000000000000000000000000600082015250565b6000610960601483610841565b915061096b8261092a565b602082019050919050565b6000602082019050818103600083015261098f81610953565b9050919050565b7f4f6e6c79207468652062726f6b65722063616e20736574207468652074696d6560008201527f6c6f636b2e000000000000000000000000000000000000000000000000000000602082015250565b60006109f2602583610841565b91506109fd82610996565b604082019050919050565b60006020820190508181036000830152610a21816109e5565b9050919050565b7f4f6e6c79207468652062656e65666963696172792063616e207769746864726160008201527f772066756e64732e000000000000000000000000000000000000000000000000602082015250565b6000610a84602883610841565b9150610a8f82610a28565b604082019050919050565b60006020820190508181036000830152610ab381610a77565b9050919050565b7f54696d656c6f636b20706572696f6420686173206e6f7420656c61707365642060008201527f7965742e00000000000000000000000000000000000000000000000000000000602082015250565b6000610b16602483610841565b9150610b2182610aba565b604082019050919050565b60006020820190508181036000830152610b4581610b09565b9050919050565b7f4f6e6c79207468652062726f6b6572206f722062656e6566696369617279206360008201527f616e2064656c6574652074686520636f6e74726163742e000000000000000000602082015250565b6000610ba8603783610841565b9150610bb382610b4c565b604082019050919050565b60006020820190508181036000830152610bd781610b9b565b905091905056fea2646970667358221220814cb9e48f40411af311c8f557095a242278adc8372cf28693ed778ab9efcb6e64736f6c63430008110033",
  "linkReferences": {},
  "deployedLinkReferences": {}
}